{
  "contractName": "CounterV2",
  "abi": [
    {
      "anonymous": false,
      "inputs": [
        {
          "indexed": false,
          "internalType": "uint8",
          "name": "version",
          "type": "uint8"
        }
      ],
      "name": "Initialized",
      "type": "event"
    },
    {
      "inputs": [],
      "name": "currentValue",
      "outputs": [
        {
          "internalType": "uint256",
          "name": "",
          "type": "uint256"
        }
      ],
      "stateMutability": "view",
      "type": "function",
      "constant": true
    },
    {
      "inputs": [
        {
          "internalType": "uint256",
          "name": "newValue",
          "type": "uint256"
        }
      ],
      "name": "store",
      "outputs": [],
      "stateMutability": "nonpayable",
      "type": "function"
    },
    {
      "inputs": [
        {
          "internalType": "uint256",
          "name": "incrementer",
          "type": "uint256"
        }
      ],
      "name": "increment",
      "outputs": [],
      "stateMutability": "nonpayable",
      "type": "function"
    },
    {
      "inputs": [
        {
          "internalType": "uint256",
          "name": "decrementer",
          "type": "uint256"
        }
      ],
      "name": "decrement",
      "outputs": [],
      "stateMutability": "nonpayable",
      "type": "function"
    }
  ],
  "bytecode": "0x608060405234801561001057600080fd5b506103da806100206000396000f3fe608060405234801561001057600080fd5b506004361061004c5760003560e01c80633a9ebefd146100515780636057361d1461006d578063698996f8146100895780637cf5dab0146100a7575b600080fd5b61006b600480360381019061006691906101cd565b6100c3565b005b610087600480360381019061008291906101cd565b6100df565b005b61009161012c565b60405161009e9190610209565b60405180910390f35b6100c160048036038101906100bc91906101cd565b610132565b005b80600160008282546100d59190610253565b9250508190555050565b60148111610122576040517f08c379a0000000000000000000000000000000000000000000000000000000008152600401610119906102e4565b60405180910390fd5b8060018190555050565b60015481565b600a811115610176576040517f08c379a000000000000000000000000000000000000000000000000000000000815260040161016d90610350565b60405180910390fd5b80600160008282546101889190610370565b9250508190555050565b600080fd5b6000819050919050565b6101aa81610197565b81146101b557600080fd5b50565b6000813590506101c7816101a1565b92915050565b6000602082840312156101e3576101e2610192565b5b60006101f1848285016101b8565b91505092915050565b61020381610197565b82525050565b600060208201905061021e60008301846101fa565b92915050565b7f4e487b7100000000000000000000000000000000000000000000000000000000600052601160045260246000fd5b600061025e82610197565b915061026983610197565b925082820390508181111561028157610280610224565b5b92915050565b600082825260208201905092915050565b7f76616c756520746f6f20736d616c6c0000000000000000000000000000000000600082015250565b60006102ce600f83610287565b91506102d982610298565b602082019050919050565b600060208201905081810360008301526102fd816102c1565b9050919050565b7f76616c756520746f6f2068696768000000000000000000000000000000000000600082015250565b600061033a600e83610287565b915061034582610304565b602082019050919050565b600060208201905081810360008301526103698161032d565b9050919050565b600061037b82610197565b915061038683610197565b925082820190508082111561039e5761039d610224565b5b9291505056fea26469706673582212202c683a3fb031446ee3d386d148828c4c6cae72a539abd257ea9ce9e09687d01f64736f6c63430008110033",
  "immutableReferences": {},
  "source": "// SPDX-License-Identifier: UNLICENSED\npragma solidity 0.8.17;\nimport \"@openzeppelin/contracts-upgradeable/proxy/utils/Initializable.sol\";\n\n\ncontract CounterV2 is Initializable {\n    // This example follow the tutorial found on OpenZeppelin website: https://docs.openzeppelin.com/learn/upgrading-smart-contracts?pref=truffle\n    // uint256 public shoudGoWrong; //overwrite previous state variable\n    uint256 public currentValue;\n\n    function store(uint256 newValue) public {\n        require(newValue > 20, \"value too small\");\n        currentValue = newValue;\n    }\n\n    function increment(uint256 incrementer) public {\n        require(incrementer <= 10, \"value too high\");\n        currentValue += incrementer;\n    }\n\n    function decrement(uint256 decrementer) public {\n        currentValue -= decrementer;\n    }\n}\n",
  "sourcePath": "/home/aymeric/Desktop/temp-truffle/contracts/CounterV2.sol",
  "compiler": {
    "name": "solc",
    "version": "0.8.17+commit.8df45f5f.Emscripten.clang"
  },
  "schemaVersion": "3.4.10",
  "updatedAt": "2022-10-03T15:38:12.992Z",
  "networkType": "ethereum",
  "devdoc": {
    "kind": "dev",
    "methods": {},
    "version": 1
  },
  "userdoc": {
    "kind": "user",
    "methods": {},
    "version": 1
  }
}