{
  "contractName": "Counter",
  "abi": [
    {
      "inputs": [],
      "stateMutability": "nonpayable",
      "type": "constructor"
    },
    {
      "anonymous": false,
      "inputs": [
        {
          "indexed": false,
          "internalType": "uint8",
          "name": "version",
          "type": "uint8"
        }
      ],
      "name": "Initialized",
      "type": "event"
    },
    {
      "inputs": [],
      "name": "currentValue",
      "outputs": [
        {
          "internalType": "uint256",
          "name": "",
          "type": "uint256"
        }
      ],
      "stateMutability": "view",
      "type": "function",
      "constant": true
    },
    {
      "inputs": [
        {
          "internalType": "uint256",
          "name": "initializedValue",
          "type": "uint256"
        }
      ],
      "name": "initialize",
      "outputs": [],
      "stateMutability": "nonpayable",
      "type": "function"
    },
    {
      "inputs": [
        {
          "internalType": "uint256",
          "name": "newValue",
          "type": "uint256"
        }
      ],
      "name": "store",
      "outputs": [],
      "stateMutability": "nonpayable",
      "type": "function"
    },
    {
      "inputs": [
        {
          "internalType": "uint256",
          "name": "incrementer",
          "type": "uint256"
        }
      ],
      "name": "increment",
      "outputs": [],
      "stateMutability": "nonpayable",
      "type": "function"
    }
  ],
  "bytecode": "0x608060405234801561001057600080fd5b5060008060019054906101000a900460ff161590508080156100425750600160008054906101000a900460ff1660ff16105b80610079575061005b3061015460201b6102b41760201c565b1580156100785750600160008054906101000a900460ff1660ff16145b5b6100b8576040517f08c379a00000000000000000000000000000000000000000000000000000000081526004016100af906101fa565b60405180910390fd5b60016000806101000a81548160ff021916908360ff16021790555080156100f5576001600060016101000a81548160ff0219169083151502179055505b801561014e5760008060016101000a81548160ff0219169083151502179055507f7f26b83ff96e1f2b6a682f133852f6798a09c465da95921460cefb38474024986001604051610145919061026c565b60405180910390a15b50610287565b6000808273ffffffffffffffffffffffffffffffffffffffff163b119050919050565b600082825260208201905092915050565b7f496e697469616c697a61626c653a20636f6e747261637420697320616c72656160008201527f647920696e697469616c697a6564000000000000000000000000000000000000602082015250565b60006101e4602e83610177565b91506101ef82610188565b604082019050919050565b60006020820190508181036000830152610213816101d7565b9050919050565b6000819050919050565b600060ff82169050919050565b6000819050919050565b600061025661025161024c8461021a565b610231565b610224565b9050919050565b6102668161023b565b82525050565b6000602082019050610281600083018461025d565b92915050565b6105ea806102966000396000f3fe608060405234801561001057600080fd5b506004361061004c5760003560e01c80636057361d14610051578063698996f81461006d5780637cf5dab01461008b578063fe4b84df146100a7575b600080fd5b61006b60048036038101906100669190610312565b6100c3565b005b610075610110565b604051610082919061034e565b60405180910390f35b6100a560048036038101906100a09190610312565b610116565b005b6100c160048036038101906100bc9190610312565b610176565b005b600a8111610106576040517f08c379a00000000000000000000000000000000000000000000000000000000081526004016100fd906103c6565b60405180910390fd5b8060018190555050565b60015481565b600a81111561015a576040517f08c379a000000000000000000000000000000000000000000000000000000000815260040161015190610432565b60405180910390fd5b806001600082825461016c9190610481565b9250508190555050565b60008060019054906101000a900460ff161590508080156101a75750600160008054906101000a900460ff1660ff16105b806101d457506101b6306102b4565b1580156101d35750600160008054906101000a900460ff1660ff16145b5b610213576040517f08c379a000000000000000000000000000000000000000000000000000000000815260040161020a90610527565b60405180910390fd5b60016000806101000a81548160ff021916908360ff1602179055508015610250576001600060016101000a81548160ff0219169083151502179055505b8160018190555080156102b05760008060016101000a81548160ff0219169083151502179055507f7f26b83ff96e1f2b6a682f133852f6798a09c465da95921460cefb384740249860016040516102a79190610599565b60405180910390a15b5050565b6000808273ffffffffffffffffffffffffffffffffffffffff163b119050919050565b600080fd5b6000819050919050565b6102ef816102dc565b81146102fa57600080fd5b50565b60008135905061030c816102e6565b92915050565b600060208284031215610328576103276102d7565b5b6000610336848285016102fd565b91505092915050565b610348816102dc565b82525050565b6000602082019050610363600083018461033f565b92915050565b600082825260208201905092915050565b7f76616c756520746f6f20736d616c6c0000000000000000000000000000000000600082015250565b60006103b0600f83610369565b91506103bb8261037a565b602082019050919050565b600060208201905081810360008301526103df816103a3565b9050919050565b7f76616c756520746f6f2068696768000000000000000000000000000000000000600082015250565b600061041c600e83610369565b9150610427826103e6565b602082019050919050565b6000602082019050818103600083015261044b8161040f565b9050919050565b7f4e487b7100000000000000000000000000000000000000000000000000000000600052601160045260246000fd5b600061048c826102dc565b9150610497836102dc565b92508282019050808211156104af576104ae610452565b5b92915050565b7f496e697469616c697a61626c653a20636f6e747261637420697320616c72656160008201527f647920696e697469616c697a6564000000000000000000000000000000000000602082015250565b6000610511602e83610369565b915061051c826104b5565b604082019050919050565b6000602082019050818103600083015261054081610504565b9050919050565b6000819050919050565b600060ff82169050919050565b6000819050919050565b600061058361057e61057984610547565b61055e565b610551565b9050919050565b61059381610568565b82525050565b60006020820190506105ae600083018461058a565b9291505056fea264697066735822122054814b82ec6d783a2cd298db48aa60b80f3fad675a002fdf908655939cc43d4064736f6c63430008110033",
  "immutableReferences": {},
  "source": "// SPDX-License-Identifier: UNLICENSED\npragma solidity 0.8.17;\nimport \"@openzeppelin/contracts-upgradeable/proxy/utils/Initializable.sol\";\n\ncontract Counter is Initializable {\n    // This example follow the tutorial found on OpenZeppelin website: https://docs.openzeppelin.com/learn/upgrading-smart-contracts?pref=truffle\n    uint256 public currentValue;\n\n    function initialize(uint initializedValue) public initializer {\n        currentValue = initializedValue;\n    }\n\n    /// @custom:oz-upgrades-unsafe-allow constructor\n    constructor() initializer {}\n\n    function store(uint256 newValue) public {\n        require(newValue > 10, \"value too small\");\n        currentValue = newValue;\n    }\n\n    function increment(uint256 incrementer) public {\n        require(incrementer <= 10, \"value too high\");\n        currentValue += incrementer;\n    }\n}\n",
  "sourcePath": "/home/aymeric/Desktop/temp-truffle/contracts/Counter.sol",
  "compiler": {
    "name": "solc",
    "version": "0.8.17+commit.8df45f5f.Emscripten.clang"
  },
  "schemaVersion": "3.4.10",
  "updatedAt": "2022-10-03T15:38:12.987Z",
  "networkType": "ethereum",
  "devdoc": {
    "kind": "dev",
    "methods": {
      "constructor": {
        "custom:oz-upgrades-unsafe-allow": "constructor"
      }
    },
    "version": 1
  },
  "userdoc": {
    "kind": "user",
    "methods": {},
    "version": 1
  }
}